{
  "_format": "hh-sol-artifact-1",
  "contractName": "RoulettesContract",
  "sourceName": "contracts/RoulettesContract.sol",
  "abi": [
    {
      "inputs": [
        {
          "internalType": "address",
          "name": "_owner",
          "type": "address"
        }
      ],
      "stateMutability": "nonpayable",
      "type": "constructor"
    },
    {
      "anonymous": false,
      "inputs": [
        {
          "indexed": false,
          "internalType": "uint256",
          "name": "rouletteId",
          "type": "uint256"
        },
        {
          "indexed": false,
          "internalType": "uint256",
          "name": "optionId",
          "type": "uint256"
        },
        {
          "indexed": false,
          "internalType": "uint256",
          "name": "newWeight",
          "type": "uint256"
        }
      ],
      "name": "OptionWeightIncremented",
      "type": "event"
    },
    {
      "anonymous": false,
      "inputs": [
        {
          "indexed": false,
          "internalType": "uint256",
          "name": "id",
          "type": "uint256"
        }
      ],
      "name": "RouletteCreated",
      "type": "event"
    },
    {
      "inputs": [
        {
          "internalType": "uint256",
          "name": "rouletteId",
          "type": "uint256"
        },
        {
          "components": [
            {
              "internalType": "uint256",
              "name": "id",
              "type": "uint256"
            },
            {
              "internalType": "uint256",
              "name": "weight",
              "type": "uint256"
            }
          ],
          "internalType": "struct RoulettesContract.Option[]",
          "name": "rouletteOptions",
          "type": "tuple[]"
        }
      ],
      "name": "createRoulette",
      "outputs": [],
      "stateMutability": "nonpayable",
      "type": "function"
    },
    {
      "inputs": [],
      "name": "helloWorld",
      "outputs": [
        {
          "internalType": "uint256",
          "name": "",
          "type": "uint256"
        }
      ],
      "stateMutability": "pure",
      "type": "function"
    },
    {
      "inputs": [],
      "name": "owner",
      "outputs": [
        {
          "internalType": "address",
          "name": "",
          "type": "address"
        }
      ],
      "stateMutability": "view",
      "type": "function"
    }
  ],
  "bytecode": "0x60a060405234801561001057600080fd5b506040516103e33803806103e383398101604081905261002f91610040565b6001600160a01b0316608052610070565b60006020828403121561005257600080fd5b81516001600160a01b038116811461006957600080fd5b9392505050565b60805161035961008a6000396000606001526103596000f3fe608060405234801561001057600080fd5b50600436106100415760003560e01c80630a7ac9bd146100465780638da5cb5b1461005b578063c605f76c1461009f575b600080fd5b61005961005436600461020e565b6100af565b005b6100827f000000000000000000000000000000000000000000000000000000000000000081565b6040516001600160a01b0390911681526020015b60405180910390f35b604051610efe8152602001610096565b600082116100bc57600080fd5b600082815260208190526040902054156100d557600080fd5b60008151116100e357600080fd5b6000828152602081905260408120838155905b8251811015610165576000838281518110610113576101136102e6565b602090810291909101810151604080518082018252825181528284015181850190815292516000908152600180890190955291909120905181559051910155508061015d816102fc565b9150506100f6565b506040518381527fe2f7a5716e73d1b9e5946fc607464dd8585de8bbb82f2d303018a9cf5994d2e59060200160405180910390a1505050565b634e487b7160e01b600052604160045260246000fd5b6040805190810167ffffffffffffffff811182821017156101d7576101d761019e565b60405290565b604051601f8201601f1916810167ffffffffffffffff811182821017156102065761020661019e565b604052919050565b600080604080848603121561022257600080fd5b8335925060208085013567ffffffffffffffff8082111561024257600080fd5b818701915087601f83011261025657600080fd5b8135818111156102685761026861019e565b610276848260051b016101dd565b818152848101925060069190911b83018401908982111561029657600080fd5b928401925b818410156102d65785848b0312156102b35760008081fd5b6102bb6101b4565b8435815285850135868201528352928501929184019161029b565b8096505050505050509250929050565b634e487b7160e01b600052603260045260246000fd5b60006001820161031c57634e487b7160e01b600052601160045260246000fd5b506001019056fea2646970667358221220d96ed95c1c540be762fad2784b43d04ab9b3e2647dbf6d1a11aba4b8ebc1d31364736f6c63430008110033",
  "linkReferences": {},
  "deployedLinkReferences": {}
}