{
  "_format": "hh-sol-artifact-1",
  "contractName": "RoulettesContract",
  "sourceName": "contracts/RoulettesContract.sol",
  "abi": [
    {
      "inputs": [
        {
          "internalType": "address",
          "name": "_owner",
          "type": "address"
        }
      ],
      "stateMutability": "nonpayable",
      "type": "constructor"
    },
    {
      "anonymous": false,
      "inputs": [
        {
          "indexed": false,
          "internalType": "uint256",
          "name": "rouletteId",
          "type": "uint256"
        },
        {
          "indexed": false,
          "internalType": "uint256",
          "name": "optionId",
          "type": "uint256"
        },
        {
          "indexed": false,
          "internalType": "uint256",
          "name": "newWeight",
          "type": "uint256"
        }
      ],
      "name": "OptionWeightIncremented",
      "type": "event"
    },
    {
      "anonymous": false,
      "inputs": [
        {
          "indexed": false,
          "internalType": "uint256",
          "name": "id",
          "type": "uint256"
        }
      ],
      "name": "RouletteCreated",
      "type": "event"
    },
    {
      "inputs": [
        {
          "internalType": "uint256",
          "name": "rouletteId",
          "type": "uint256"
        },
        {
          "components": [
            {
              "internalType": "uint256",
              "name": "id",
              "type": "uint256"
            },
            {
              "internalType": "uint256",
              "name": "weight",
              "type": "uint256"
            }
          ],
          "internalType": "struct RoulettesContract.Option[]",
          "name": "rouletteOptions",
          "type": "tuple[]"
        }
      ],
      "name": "createRoulette",
      "outputs": [],
      "stateMutability": "nonpayable",
      "type": "function"
    },
    {
      "inputs": [],
      "name": "helloWorld",
      "outputs": [
        {
          "internalType": "string",
          "name": "",
          "type": "string"
        }
      ],
      "stateMutability": "pure",
      "type": "function"
    },
    {
      "inputs": [],
      "name": "owner",
      "outputs": [
        {
          "internalType": "address",
          "name": "",
          "type": "address"
        }
      ],
      "stateMutability": "view",
      "type": "function"
    }
  ],
  "bytecode": "0x60a060405234801561001057600080fd5b5060405161044d38038061044d83398101604081905261002f91610040565b6001600160a01b0316608052610070565b60006020828403121561005257600080fd5b81516001600160a01b038116811461006957600080fd5b9392505050565b6080516103c361008a6000396000606001526103c36000f3fe608060405234801561001057600080fd5b50600436106100415760003560e01c80630a7ac9bd146100465780638da5cb5b1461005b578063c605f76c1461009f575b600080fd5b61005961005436600461022a565b6100cb565b005b6100827f000000000000000000000000000000000000000000000000000000000000000081565b6040516001600160a01b0390911681526020015b60405180910390f35b604080518082018252600a81526912195b1b1bd5dbdc9b1960b21b602082015290516100969190610302565b600082116100d857600080fd5b600082815260208190526040902054156100f157600080fd5b60008151116100ff57600080fd5b6000828152602081905260408120838155905b825181101561018157600083828151811061012f5761012f610350565b602090810291909101810151604080518082018252825181528284015181850190815292516000908152600180890190955291909120905181559051910155508061017981610366565b915050610112565b506040518381527fe2f7a5716e73d1b9e5946fc607464dd8585de8bbb82f2d303018a9cf5994d2e59060200160405180910390a1505050565b634e487b7160e01b600052604160045260246000fd5b6040805190810167ffffffffffffffff811182821017156101f3576101f36101ba565b60405290565b604051601f8201601f1916810167ffffffffffffffff81118282101715610222576102226101ba565b604052919050565b600080604080848603121561023e57600080fd5b8335925060208085013567ffffffffffffffff8082111561025e57600080fd5b818701915087601f83011261027257600080fd5b813581811115610284576102846101ba565b610292848260051b016101f9565b818152848101925060069190911b8301840190898211156102b257600080fd5b928401925b818410156102f25785848b0312156102cf5760008081fd5b6102d76101d0565b843581528585013586820152835292850192918401916102b7565b8096505050505050509250929050565b600060208083528351808285015260005b8181101561032f57858101830151858201604001528201610313565b506000604082860101526040601f19601f8301168501019250505092915050565b634e487b7160e01b600052603260045260246000fd5b60006001820161038657634e487b7160e01b600052601160045260246000fd5b506001019056fea26469706673582212204721c6ab3a4d272bc71481b9493528d51989decb698d45594e7e3bdcb223803564736f6c63430008110033",
  "linkReferences": {},
  "deployedLinkReferences": {}
}